{
  "_format": "hh-sol-artifact-1",
  "contractName": "StackUp",
  "sourceName": "contracts/Stackup.sol",
  "abi": [
    {
      "inputs": [],
      "stateMutability": "nonpayable",
      "type": "constructor"
    },
    {
      "inputs": [
        {
          "internalType": "uint256",
          "name": "questId",
          "type": "uint256"
        },
        {
          "internalType": "address",
          "name": "player",
          "type": "address"
        }
      ],
      "name": "acceptQuest",
      "outputs": [],
      "stateMutability": "nonpayable",
      "type": "function"
    },
    {
      "inputs": [],
      "name": "admin",
      "outputs": [
        {
          "internalType": "address",
          "name": "",
          "type": "address"
        }
      ],
      "stateMutability": "view",
      "type": "function"
    },
    {
      "inputs": [
        {
          "internalType": "string",
          "name": "title_",
          "type": "string"
        },
        {
          "internalType": "uint8",
          "name": "reward_",
          "type": "uint8"
        },
        {
          "internalType": "uint256",
          "name": "numberOfRewards_",
          "type": "uint256"
        }
      ],
      "name": "createQuest",
      "outputs": [],
      "stateMutability": "nonpayable",
      "type": "function"
    },
    {
      "inputs": [
        {
          "internalType": "uint256",
          "name": "questId",
          "type": "uint256"
        }
      ],
      "name": "deleteQuest",
      "outputs": [],
      "stateMutability": "nonpayable",
      "type": "function"
    },
    {
      "inputs": [
        {
          "internalType": "uint256",
          "name": "questId",
          "type": "uint256"
        },
        {
          "internalType": "string",
          "name": "newTitle",
          "type": "string"
        },
        {
          "internalType": "uint8",
          "name": "newReward",
          "type": "uint8"
        },
        {
          "internalType": "uint256",
          "name": "newNumberOfRewards",
          "type": "uint256"
        }
      ],
      "name": "editQuest",
      "outputs": [],
      "stateMutability": "nonpayable",
      "type": "function"
    },
    {
      "inputs": [
        {
          "internalType": "uint256",
          "name": "questId",
          "type": "uint256"
        }
      ],
      "name": "joinQuest",
      "outputs": [],
      "stateMutability": "nonpayable",
      "type": "function"
    },
    {
      "inputs": [],
      "name": "nextQuestId",
      "outputs": [
        {
          "internalType": "uint256",
          "name": "",
          "type": "uint256"
        }
      ],
      "stateMutability": "view",
      "type": "function"
    },
    {
      "inputs": [
        {
          "internalType": "address",
          "name": "",
          "type": "address"
        },
        {
          "internalType": "uint256",
          "name": "",
          "type": "uint256"
        }
      ],
      "name": "playerQuestStatuses",
      "outputs": [
        {
          "internalType": "enum StackUp.PlayerQuestStatus",
          "name": "",
          "type": "uint8"
        }
      ],
      "stateMutability": "view",
      "type": "function"
    },
    {
      "inputs": [
        {
          "internalType": "address",
          "name": "",
          "type": "address"
        }
      ],
      "name": "playerRewards",
      "outputs": [
        {
          "internalType": "uint256",
          "name": "totalEarnings",
          "type": "uint256"
        },
        {
          "internalType": "uint256",
          "name": "totalExp",
          "type": "uint256"
        }
      ],
      "stateMutability": "view",
      "type": "function"
    },
    {
      "inputs": [
        {
          "internalType": "uint256",
          "name": "",
          "type": "uint256"
        }
      ],
      "name": "quests",
      "outputs": [
        {
          "internalType": "uint256",
          "name": "questId",
          "type": "uint256"
        },
        {
          "internalType": "uint256",
          "name": "numberOfPlayers",
          "type": "uint256"
        },
        {
          "internalType": "string",
          "name": "title",
          "type": "string"
        },
        {
          "internalType": "uint8",
          "name": "reward",
          "type": "uint8"
        },
        {
          "internalType": "uint256",
          "name": "numberOfRewards",
          "type": "uint256"
        },
        {
          "internalType": "uint256",
          "name": "numberOfRewardsLeft",
          "type": "uint256"
        }
      ],
      "stateMutability": "view",
      "type": "function"
    },
    {
      "inputs": [
        {
          "internalType": "uint256",
          "name": "questId",
          "type": "uint256"
        },
        {
          "internalType": "address",
          "name": "player",
          "type": "address"
        }
      ],
      "name": "rejectQuest",
      "outputs": [],
      "stateMutability": "nonpayable",
      "type": "function"
    },
    {
      "inputs": [
        {
          "internalType": "uint256",
          "name": "questId",
          "type": "uint256"
        }
      ],
      "name": "submitQuest",
      "outputs": [],
      "stateMutability": "nonpayable",
      "type": "function"
    }
  ],
  "bytecode": "0x608060405234801561001057600080fd5b50336000806101000a81548173ffffffffffffffffffffffffffffffffffffffff021916908373ffffffffffffffffffffffffffffffffffffffff1602179055506124bc806100606000396000f3fe608060405234801561001057600080fd5b50600436106100b45760003560e01c8063ad1c8a2411610071578063ad1c8a2414610175578063d638c98314610191578063e085f980146101af578063e7ed5625146101e4578063f851a44014610215578063febd456614610233576100b4565b8063103d36b8146100b957806321d121d5146100d55780632d96e8f2146100f1578063653e6bdd1461010d57806378ff2bda1461012957806399f7358c14610145575b600080fd5b6100d360048036038101906100ce91906117a8565b61024f565b005b6100ef60048036038101906100ea9190611833565b6103a5565b005b61010b60048036038101906101069190611911565b610ac1565b005b61012760048036038101906101229190611833565b610c1f565b005b610143600480360381019061013e91906117a8565b6110e0565b005b61015f600480360381019061015a9190611985565b6112b7565b60405161016c9190611a3c565b60405180910390f35b61018f600480360381019061018a91906117a8565b6112e6565b005b610199611491565b6040516101a69190611a66565b60405180910390f35b6101c960048036038101906101c491906117a8565b611497565b6040516101db96959493929190611b20565b60405180910390f35b6101fe60048036038101906101f99190611b88565b611568565b60405161020c929190611bb5565b60405180910390f35b61021d61158c565b60405161022a9190611bed565b60405180910390f35b61024d60048036038101906102489190611c08565b6115b0565b005b60008054906101000a900473ffffffffffffffffffffffffffffffffffffffff1673ffffffffffffffffffffffffffffffffffffffff163373ffffffffffffffffffffffffffffffffffffffff16146102dd576040517f08c379a00000000000000000000000000000000000000000000000000000000081526004016102d490611d02565b60405180910390fd5b8060006002600083815260200190815260200160002060030160009054906101000a900460ff1660ff1603610347576040517f08c379a000000000000000000000000000000000000000000000000000000000815260040161033e90611d6e565b60405180910390fd5b60026000838152602001908152602001600020600080820160009055600182016000905560028201600061037b919061170b565b6003820160006101000a81549060ff02191690556004820160009055600582016000905550505050565b60008054906101000a900473ffffffffffffffffffffffffffffffffffffffff1673ffffffffffffffffffffffffffffffffffffffff163373ffffffffffffffffffffffffffffffffffffffff1614610433576040517f08c379a000000000000000000000000000000000000000000000000000000000815260040161042a90611d02565b60405180910390fd5b8160006002600083815260200190815260200160002060030160009054906101000a900460ff1660ff160361049d576040517f08c379a000000000000000000000000000000000000000000000000000000000815260040161049490611d6e565b60405180910390fd5b60006002600085815260200190815260200160002060010154116104f6576040517f08c379a00000000000000000000000000000000000000000000000000000000081526004016104ed90611dda565b60405180910390fd5b6002600581111561050a576105096119c5565b5b600360008473ffffffffffffffffffffffffffffffffffffffff1673ffffffffffffffffffffffffffffffffffffffff168152602001908152602001600020600085815260200190815260200160002060009054906101000a900460ff16600581111561057a576105796119c5565b5b1480610607575060046005811115610595576105946119c5565b5b600360008473ffffffffffffffffffffffffffffffffffffffff1673ffffffffffffffffffffffffffffffffffffffff168152602001908152602001600020600085815260200190815260200160002060009054906101000a900460ff166005811115610605576106046119c5565b5b145b80610693575060036005811115610621576106206119c5565b5b600360008473ffffffffffffffffffffffffffffffffffffffff1673ffffffffffffffffffffffffffffffffffffffff168152602001908152602001600020600085815260200190815260200160002060009054906101000a900460ff166005811115610691576106906119c5565b5b145b6106d2576040517f08c379a00000000000000000000000000000000000000000000000000000000081526004016106c990611e92565b60405180910390fd5b600460058111156106e6576106e56119c5565b5b600360008473ffffffffffffffffffffffffffffffffffffffff1673ffffffffffffffffffffffffffffffffffffffff168152602001908152602001600020600085815260200190815260200160002060009054906101000a900460ff166005811115610756576107556119c5565b5b03610834576101f4600460008473ffffffffffffffffffffffffffffffffffffffff1673ffffffffffffffffffffffffffffffffffffffff16815260200190815260200160002060010160008282546107af9190611ee1565b925050819055506005600360008473ffffffffffffffffffffffffffffffffffffffff1673ffffffffffffffffffffffffffffffffffffffff168152602001908152602001600020600085815260200190815260200160002060006101000a81548160ff0219169083600581111561082a576108296119c5565b5b0217905550610abc565b60036005811115610848576108476119c5565b5b600360008473ffffffffffffffffffffffffffffffffffffffff1673ffffffffffffffffffffffffffffffffffffffff168152602001908152602001600020600085815260200190815260200160002060009054906101000a900460ff1660058111156108b8576108b76119c5565b5b03610a41576002600084815260200190815260200160002060030160009054906101000a900460ff1660ff16600460008473ffffffffffffffffffffffffffffffffffffffff1673ffffffffffffffffffffffffffffffffffffffff16815260200190815260200160002060000160008282546109359190611ee1565b925050819055506101f4600460008473ffffffffffffffffffffffffffffffffffffffff1673ffffffffffffffffffffffffffffffffffffffff16815260200190815260200160002060010160008282546109909190611ee1565b925050819055506002600084815260200190815260200160002060050160008154809291906109be90611f15565b91905055506005600360008473ffffffffffffffffffffffffffffffffffffffff1673ffffffffffffffffffffffffffffffffffffffff168152602001908152602001600020600085815260200190815260200160002060006101000a81548160ff02191690836005811115610a3757610a366119c5565b5b0217905550610abb565b6005600360008473ffffffffffffffffffffffffffffffffffffffff1673ffffffffffffffffffffffffffffffffffffffff168152602001908152602001600020600085815260200190815260200160002060006101000a81548160ff02191690836005811115610ab557610ab46119c5565b5b02179055505b5b505050565b60008054906101000a900473ffffffffffffffffffffffffffffffffffffffff1673ffffffffffffffffffffffffffffffffffffffff163373ffffffffffffffffffffffffffffffffffffffff1614610b4f576040517f08c379a0000000000000000000000000000000000000000000000000000000008152600401610b4690611d02565b60405180910390fd5b6001546002600060015481526020019081526020016000206000018190555083836002600060015481526020019081526020016000206002019182610b959291906121a3565b508160026000600154815260200190815260200160002060030160006101000a81548160ff021916908360ff1602179055508060026000600154815260200190815260200160002060040181905550806002600060015481526020019081526020016000206005018190555060016000815480929190610c1490611f15565b919050555050505050565b60008054906101000a900473ffffffffffffffffffffffffffffffffffffffff1673ffffffffffffffffffffffffffffffffffffffff163373ffffffffffffffffffffffffffffffffffffffff1614610cad576040517f08c379a0000000000000000000000000000000000000000000000000000000008152600401610ca490611d02565b60405180910390fd5b8160006002600083815260200190815260200160002060030160009054906101000a900460ff1660ff1603610d17576040517f08c379a0000000000000000000000000000000000000000000000000000000008152600401610d0e90611d6e565b60405180910390fd5b60026005811115610d2b57610d2a6119c5565b5b600360008473ffffffffffffffffffffffffffffffffffffffff1673ffffffffffffffffffffffffffffffffffffffff168152602001908152602001600020600085815260200190815260200160002060009054906101000a900460ff166005811115610d9b57610d9a6119c5565b5b1480610e275750600580811115610db557610db46119c5565b5b600360008473ffffffffffffffffffffffffffffffffffffffff1673ffffffffffffffffffffffffffffffffffffffff168152602001908152602001600020600085815260200190815260200160002060009054906101000a900460ff166005811115610e2557610e246119c5565b5b145b610e66576040517f08c379a0000000000000000000000000000000000000000000000000000000008152600401610e5d9061230b565b60405180910390fd5b6000600260008581526020019081526020016000206001015411610ebf576040517f08c379a0000000000000000000000000000000000000000000000000000000008152600401610eb690611dda565b60405180910390fd5b6101f4600460008473ffffffffffffffffffffffffffffffffffffffff1673ffffffffffffffffffffffffffffffffffffffff1681526020019081526020016000206001016000828254610f13919061232b565b92505081905550600060026000858152602001908152602001600020600501541115611061576002600084815260200190815260200160002060030160009054906101000a900460ff1660ff16600460008473ffffffffffffffffffffffffffffffffffffffff1673ffffffffffffffffffffffffffffffffffffffff1681526020019081526020016000206000016000828254610fb1919061232b565b92505081905550600260008481526020019081526020016000206005016000815480929190610fdf9061235f565b919050555060038060008473ffffffffffffffffffffffffffffffffffffffff1673ffffffffffffffffffffffffffffffffffffffff168152602001908152602001600020600085815260200190815260200160002060006101000a81548160ff02191690836005811115611057576110566119c5565b5b02179055506110db565b6004600360008473ffffffffffffffffffffffffffffffffffffffff1673ffffffffffffffffffffffffffffffffffffffff168152602001908152602001600020600085815260200190815260200160002060006101000a81548160ff021916908360058111156110d5576110d46119c5565b5b02179055505b505050565b8060006002600083815260200190815260200160002060030160009054906101000a900460ff1660ff160361114a576040517f08c379a000000000000000000000000000000000000000000000000000000000815260040161114190611d6e565b60405180910390fd5b6000600581111561115e5761115d6119c5565b5b600360003373ffffffffffffffffffffffffffffffffffffffff1673ffffffffffffffffffffffffffffffffffffffff168152602001908152602001600020600084815260200190815260200160002060009054906101000a900460ff1660058111156111ce576111cd6119c5565b5b1461120e576040517f08c379a0000000000000000000000000000000000000000000000000000000008152600401611205906123fa565b60405180910390fd5b6001600360003373ffffffffffffffffffffffffffffffffffffffff1673ffffffffffffffffffffffffffffffffffffffff168152602001908152602001600020600084815260200190815260200160002060006101000a81548160ff02191690836005811115611282576112816119c5565b5b02179055506002600083815260200190815260200160002060010160008154809291906112ae90611f15565b91905055505050565b60036020528160005260406000206020528060005260406000206000915091509054906101000a900460ff1681565b8060006002600083815260200190815260200160002060030160009054906101000a900460ff1660ff1603611350576040517f08c379a000000000000000000000000000000000000000000000000000000000815260040161134790611d6e565b60405180910390fd5b60016005811115611364576113636119c5565b5b600360003373ffffffffffffffffffffffffffffffffffffffff1673ffffffffffffffffffffffffffffffffffffffff168152602001908152602001600020600084815260200190815260200160002060009054906101000a900460ff1660058111156113d4576113d36119c5565b5b14611414576040517f08c379a000000000000000000000000000000000000000000000000000000000815260040161140b90612466565b60405180910390fd5b6002600360003373ffffffffffffffffffffffffffffffffffffffff1673ffffffffffffffffffffffffffffffffffffffff168152602001908152602001600020600084815260200190815260200160002060006101000a81548160ff02191690836005811115611488576114876119c5565b5b02179055505050565b60015481565b60026020528060005260406000206000915090508060000154908060010154908060020180546114c690611fc6565b80601f01602080910402602001604051908101604052809291908181526020018280546114f290611fc6565b801561153f5780601f106115145761010080835404028352916020019161153f565b820191906000526020600020905b81548152906001019060200180831161152257829003601f168201915b5050505050908060030160009054906101000a900460ff16908060040154908060050154905086565b60046020528060005260406000206000915090508060000154908060010154905082565b60008054906101000a900473ffffffffffffffffffffffffffffffffffffffff1681565b60008054906101000a900473ffffffffffffffffffffffffffffffffffffffff1673ffffffffffffffffffffffffffffffffffffffff163373ffffffffffffffffffffffffffffffffffffffff161461163e576040517f08c379a000000000000000000000000000000000000000000000000000000000815260040161163590611d02565b60405180910390fd5b8460006002600083815260200190815260200160002060030160009054906101000a900460ff1660ff16036116a8576040517f08c379a000000000000000000000000000000000000000000000000000000000815260040161169f90611d6e565b60405180910390fd5b600060026000888152602001908152602001600020905085858260020191826116d29291906121a3565b50838160030160006101000a81548160ff021916908360ff16021790555082816004018190555082816005018190555050505050505050565b50805461171790611fc6565b6000825580601f106117295750611748565b601f016020900490600052602060002090810190611747919061174b565b5b50565b5b8082111561176457600081600090555060010161174c565b5090565b600080fd5b600080fd5b6000819050919050565b61178581611772565b811461179057600080fd5b50565b6000813590506117a28161177c565b92915050565b6000602082840312156117be576117bd611768565b5b60006117cc84828501611793565b91505092915050565b600073ffffffffffffffffffffffffffffffffffffffff82169050919050565b6000611800826117d5565b9050919050565b611810816117f5565b811461181b57600080fd5b50565b60008135905061182d81611807565b92915050565b6000806040838503121561184a57611849611768565b5b600061185885828601611793565b92505060206118698582860161181e565b9150509250929050565b600080fd5b600080fd5b600080fd5b60008083601f84011261189857611897611873565b5b8235905067ffffffffffffffff8111156118b5576118b4611878565b5b6020830191508360018202830111156118d1576118d061187d565b5b9250929050565b600060ff82169050919050565b6118ee816118d8565b81146118f957600080fd5b50565b60008135905061190b816118e5565b92915050565b6000806000806060858703121561192b5761192a611768565b5b600085013567ffffffffffffffff8111156119495761194861176d565b5b61195587828801611882565b94509450506020611968878288016118fc565b925050604061197987828801611793565b91505092959194509250565b6000806040838503121561199c5761199b611768565b5b60006119aa8582860161181e565b92505060206119bb85828601611793565b9150509250929050565b7f4e487b7100000000000000000000000000000000000000000000000000000000600052602160045260246000fd5b60068110611a0557611a046119c5565b5b50565b6000819050611a16826119f4565b919050565b6000611a2682611a08565b9050919050565b611a3681611a1b565b82525050565b6000602082019050611a516000830184611a2d565b92915050565b611a6081611772565b82525050565b6000602082019050611a7b6000830184611a57565b92915050565b600081519050919050565b600082825260208201905092915050565b60005b83811015611abb578082015181840152602081019050611aa0565b60008484015250505050565b6000601f19601f8301169050919050565b6000611ae382611a81565b611aed8185611a8c565b9350611afd818560208601611a9d565b611b0681611ac7565b840191505092915050565b611b1a816118d8565b82525050565b600060c082019050611b356000830189611a57565b611b426020830188611a57565b8181036040830152611b548187611ad8565b9050611b636060830186611b11565b611b706080830185611a57565b611b7d60a0830184611a57565b979650505050505050565b600060208284031215611b9e57611b9d611768565b5b6000611bac8482850161181e565b91505092915050565b6000604082019050611bca6000830185611a57565b611bd76020830184611a57565b9392505050565b611be7816117f5565b82525050565b6000602082019050611c026000830184611bde565b92915050565b600080600080600060808688031215611c2457611c23611768565b5b6000611c3288828901611793565b955050602086013567ffffffffffffffff811115611c5357611c5261176d565b5b611c5f88828901611882565b94509450506040611c72888289016118fc565b9250506060611c8388828901611793565b9150509295509295909350565b7f4f6e6c79207468652061646d696e2063616e20706572666f726d20746869732060008201527f616374696f6e0000000000000000000000000000000000000000000000000000602082015250565b6000611cec602683611a8c565b9150611cf782611c90565b604082019050919050565b60006020820190508181036000830152611d1b81611cdf565b9050919050565b7f517565737420646f6573206e6f74206578697374000000000000000000000000600082015250565b6000611d58601483611a8c565b9150611d6382611d22565b602082019050919050565b60006020820190508181036000830152611d8781611d4b565b9050919050565b7f4e6f20706c6179657273206a6f696e6564207468697320717565737400000000600082015250565b6000611dc4601c83611a8c565b9150611dcf82611d8e565b602082019050919050565b60006020820190508181036000830152611df381611db7565b9050919050565b7f506c6179657220686173206e6f74207375626d6974746564207468652071756560008201527f7374204f522051756573742068617320616c7265616479206265656e2072656a60208201527f656374656420666f7220706c6179657200000000000000000000000000000000604082015250565b6000611e7c605083611a8c565b9150611e8782611dfa565b606082019050919050565b60006020820190508181036000830152611eab81611e6f565b9050919050565b7f4e487b7100000000000000000000000000000000000000000000000000000000600052601160045260246000fd5b6000611eec82611772565b9150611ef783611772565b9250828203905081811115611f0f57611f0e611eb2565b5b92915050565b6000611f2082611772565b91507fffffffffffffffffffffffffffffffffffffffffffffffffffffffffffffffff8203611f5257611f51611eb2565b5b600182019050919050565b600082905092915050565b7f4e487b7100000000000000000000000000000000000000000000000000000000600052604160045260246000fd5b7f4e487b7100000000000000000000000000000000000000000000000000000000600052602260045260246000fd5b60006002820490506001821680611fde57607f821691505b602082108103611ff157611ff0611f97565b5b50919050565b60008190508160005260206000209050919050565b60006020601f8301049050919050565b600082821b905092915050565b6000600883026120597fffffffffffffffffffffffffffffffffffffffffffffffffffffffffffffffff8261201c565b612063868361201c565b95508019841693508086168417925050509392505050565b6000819050919050565b60006120a061209b61209684611772565b61207b565b611772565b9050919050565b6000819050919050565b6120ba83612085565b6120ce6120c6826120a7565b848454612029565b825550505050565b600090565b6120e36120d6565b6120ee8184846120b1565b505050565b5b81811015612112576121076000826120db565b6001810190506120f4565b5050565b601f8211156121575761212881611ff7565b6121318461200c565b81016020851015612140578190505b61215461214c8561200c565b8301826120f3565b50505b505050565b600082821c905092915050565b600061217a6000198460080261215c565b1980831691505092915050565b60006121938383612169565b9150826002028217905092915050565b6121ad8383611f5d565b67ffffffffffffffff8111156121c6576121c5611f68565b5b6121d08254611fc6565b6121db828285612116565b6000601f83116001811461220a57600084156121f8578287013590505b6122028582612187565b86555061226a565b601f19841661221886611ff7565b60005b828110156122405784890135825560018201915060208501945060208101905061221b565b8683101561225d5784890135612259601f891682612169565b8355505b6001600288020188555050505b50505050505050565b7f506c6179657220686173206e6f74207375626d6974746564207175657374204f60008201527f522051756573742068617320616c7265616479206265656e207265776172646560208201527f642f617070726f76656420666f722074686520706c6179657200000000000000604082015250565b60006122f5605983611a8c565b915061230082612273565b606082019050919050565b60006020820190508181036000830152612324816122e8565b9050919050565b600061233682611772565b915061234183611772565b925082820190508082111561235957612358611eb2565b5b92915050565b600061236a82611772565b91506000820361237d5761237c611eb2565b5b600182039050919050565b7f506c617965722068617320616c7265616479206a6f696e65642f7375626d697460008201527f7465642074686973207175657374000000000000000000000000000000000000602082015250565b60006123e4602e83611a8c565b91506123ef82612388565b604082019050919050565b60006020820190508181036000830152612413816123d7565b9050919050565b7f506c61796572206d757374206669727374206a6f696e20746865207175657374600082015250565b6000612450602083611a8c565b915061245b8261241a565b602082019050919050565b6000602082019050818103600083015261247f81612443565b905091905056fea2646970667358221220d2c2e85a4f4bc7968a9fc6dbb4615a08403ddb079ad7cb9500a02faddf49490364736f6c63430008120033",
  "linkReferences": {},
  "deployedLinkReferences": {}
}